{
  "contractName": "Vote",
  "abi": [
    {
      "inputs": [],
      "payable": false,
      "stateMutability": "nonpayable",
      "type": "constructor"
    },
    {
      "constant": true,
      "inputs": [
        {
          "internalType": "uint256",
          "name": "",
          "type": "uint256"
        }
      ],
      "name": "contestants",
      "outputs": [
        {
          "internalType": "uint256",
          "name": "id",
          "type": "uint256"
        },
        {
          "internalType": "string",
          "name": "name",
          "type": "string"
        },
        {
          "internalType": "uint256",
          "name": "voteCount",
          "type": "uint256"
        },
        {
          "internalType": "string",
          "name": "party",
          "type": "string"
        },
        {
          "internalType": "uint256",
          "name": "age",
          "type": "uint256"
        },
        {
          "internalType": "string",
          "name": "qualification",
          "type": "string"
        }
      ],
      "payable": false,
      "stateMutability": "view",
      "type": "function"
    },
    {
      "constant": true,
      "inputs": [],
      "name": "contestantsCount",
      "outputs": [
        {
          "internalType": "uint256",
          "name": "",
          "type": "uint256"
        }
      ],
      "payable": false,
      "stateMutability": "view",
      "type": "function"
    },
    {
      "constant": true,
      "inputs": [],
      "name": "state",
      "outputs": [
        {
          "internalType": "enum Vote.PHASE",
          "name": "",
          "type": "uint8"
        }
      ],
      "payable": false,
      "stateMutability": "view",
      "type": "function"
    },
    {
      "constant": true,
      "inputs": [
        {
          "internalType": "address",
          "name": "",
          "type": "address"
        }
      ],
      "name": "voters",
      "outputs": [
        {
          "internalType": "bool",
          "name": "hasVoted",
          "type": "bool"
        },
        {
          "internalType": "uint256",
          "name": "vote",
          "type": "uint256"
        },
        {
          "internalType": "bool",
          "name": "isRegistered",
          "type": "bool"
        }
      ],
      "payable": false,
      "stateMutability": "view",
      "type": "function"
    },
    {
      "constant": false,
      "inputs": [
        {
          "internalType": "enum Vote.PHASE",
          "name": "x",
          "type": "uint8"
        }
      ],
      "name": "changeState",
      "outputs": [],
      "payable": false,
      "stateMutability": "nonpayable",
      "type": "function"
    },
    {
      "constant": false,
      "inputs": [
        {
          "internalType": "string",
          "name": "_name",
          "type": "string"
        },
        {
          "internalType": "string",
          "name": "_party",
          "type": "string"
        },
        {
          "internalType": "uint256",
          "name": "_age",
          "type": "uint256"
        },
        {
          "internalType": "string",
          "name": "_qualification",
          "type": "string"
        }
      ],
      "name": "addContestant",
      "outputs": [],
      "payable": false,
      "stateMutability": "nonpayable",
      "type": "function"
    },
    {
      "constant": false,
      "inputs": [
        {
          "internalType": "address",
          "name": "user",
          "type": "address"
        }
      ],
      "name": "voterRegisteration",
      "outputs": [],
      "payable": false,
      "stateMutability": "nonpayable",
      "type": "function"
    },
    {
      "constant": false,
      "inputs": [
        {
          "internalType": "uint256",
          "name": "_contestantId",
          "type": "uint256"
        }
      ],
      "name": "vote",
      "outputs": [],
      "payable": false,
      "stateMutability": "nonpayable",
      "type": "function"
    },
    {
      "constant": true,
      "inputs": [],
      "name": "getAdmin",
      "outputs": [
        {
          "internalType": "address",
          "name": "",
          "type": "address"
        }
      ],
      "payable": false,
      "stateMutability": "view",
      "type": "function"
    },
    {
      "constant": true,
      "inputs": [],
      "name": "fetchCandidateCount",
      "outputs": [
        {
          "internalType": "uint256",
          "name": "",
          "type": "uint256"
        }
      ],
      "payable": false,
      "stateMutability": "view",
      "type": "function"
    },
    {
      "constant": true,
      "inputs": [
        {
          "internalType": "uint256",
          "name": "_value",
          "type": "uint256"
        }
      ],
      "name": "getCandidates",
      "outputs": [
        {
          "components": [
            {
              "internalType": "uint256",
              "name": "id",
              "type": "uint256"
            },
            {
              "internalType": "string",
              "name": "name",
              "type": "string"
            },
            {
              "internalType": "uint256",
              "name": "voteCount",
              "type": "uint256"
            },
            {
              "internalType": "string",
              "name": "party",
              "type": "string"
            },
            {
              "internalType": "uint256",
              "name": "age",
              "type": "uint256"
            },
            {
              "internalType": "string",
              "name": "qualification",
              "type": "string"
            }
          ],
          "internalType": "struct Vote.Contestant",
          "name": "",
          "type": "tuple"
        }
      ],
      "payable": false,
      "stateMutability": "view",
      "type": "function"
    }
  ],
  "bytecode": "0x608060405234801561001057600080fd5b50336000806101000a81548173ffffffffffffffffffffffffffffffffffffffff021916908373ffffffffffffffffffffffffffffffffffffffff1602179055506000600460006101000a81548160ff0219169083600281111561007057fe5b0217905550611298806100846000396000f3fe608060405234801561001057600080fd5b50600436106100a95760003560e01c80636e9960c3116100715780636e9960c314610150578063a3ec138d1461016e578063c19d93fb146101a0578063dfd50f52146101be578063ec63d1c8146101f3578063ef32818614610211576100a9565b80630121b93f146100ae578063268f1153146100ca5780633e39a7a5146100e657806349b4a6b914610116578063698ceb5f14610134575b600080fd5b6100c860048036036100c39190810190610e27565b61022d565b005b6100e460048036036100df9190810190610d53565b6103fa565b005b61010060048036036100fb9190810190610e27565b6104aa565b60405161010d9190611011565b60405180910390f35b61011e6106db565b60405161012b9190611033565b60405180910390f35b61014e60048036036101499190810190610d2a565b6106e5565b005b6101586107d0565b6040516101659190610fa4565b60405180910390f35b61018860048036036101839190810190610d2a565b6107f9565b60405161019793929190610fbf565b60405180910390f35b6101a861083d565b6040516101b59190610ff6565b60405180910390f35b6101d860048036036101d39190810190610e27565b610850565b6040516101ea9695949392919061104e565b60405180910390f35b6101fb610a54565b6040516102089190611033565b60405180910390f35b61022b60048036036102269190810190610d7c565b610a5a565b005b600180600281111561023b57fe5b600460009054906101000a900460ff16600281111561025657fe5b1461026057600080fd5b600260003373ffffffffffffffffffffffffffffffffffffffff1673ffffffffffffffffffffffffffffffffffffffff16815260200190815260200160002060020160009054906101000a900460ff166102b957600080fd5b600260003373ffffffffffffffffffffffffffffffffffffffff1673ffffffffffffffffffffffffffffffffffffffff16815260200190815260200160002060000160009054906101000a900460ff161561031357600080fd5b60008211801561032557506003548211155b61032e57600080fd5b60016000838152602001908152602001600020600201600081548092919060010191905055506001600260003373ffffffffffffffffffffffffffffffffffffffff1673ffffffffffffffffffffffffffffffffffffffff16815260200190815260200160002060000160006101000a81548160ff02191690831515021790555081600260003373ffffffffffffffffffffffffffffffffffffffff1673ffffffffffffffffffffffffffffffffffffffff168152602001908152602001600020600101819055505050565b6000809054906101000a900473ffffffffffffffffffffffffffffffffffffffff1673ffffffffffffffffffffffffffffffffffffffff163373ffffffffffffffffffffffffffffffffffffffff161461045357600080fd5b600460009054906101000a900460ff16600281111561046e57fe5b81600281111561047a57fe5b1161048457600080fd5b80600460006101000a81548160ff021916908360028111156104a257fe5b021790555050565b6104b2610bbc565b600160008381526020019081526020016000206040518060c001604052908160008201548152602001600182018054600181600116156101000203166002900480601f0160208091040260200160405190810160405280929190818152602001828054600181600116156101000203166002900480156105735780601f1061054857610100808354040283529160200191610573565b820191906000526020600020905b81548152906001019060200180831161055657829003601f168201915b5050505050815260200160028201548152602001600382018054600181600116156101000203166002900480601f01602080910402602001604051908101604052809291908181526020018280546001816001161561010002031660029004801561061f5780601f106105f45761010080835404028352916020019161061f565b820191906000526020600020905b81548152906001019060200180831161060257829003601f168201915b5050505050815260200160048201548152602001600582018054600181600116156101000203166002900480601f0160208091040260200160405190810160405280929190818152602001828054600181600116156101000203166002900480156106cb5780601f106106a0576101008083540402835291602001916106cb565b820191906000526020600020905b8154815290600101906020018083116106ae57829003601f168201915b5050505050815250509050919050565b6000600354905090565b6000809054906101000a900473ffffffffffffffffffffffffffffffffffffffff1673ffffffffffffffffffffffffffffffffffffffff163373ffffffffffffffffffffffffffffffffffffffff161461073e57600080fd5b600080600281111561074c57fe5b600460009054906101000a900460ff16600281111561076757fe5b1461077157600080fd5b6001600260008473ffffffffffffffffffffffffffffffffffffffff1673ffffffffffffffffffffffffffffffffffffffff16815260200190815260200160002060020160006101000a81548160ff0219169083151502179055505050565b60008060009054906101000a900473ffffffffffffffffffffffffffffffffffffffff16905090565b60026020528060005260406000206000915090508060000160009054906101000a900460ff16908060010154908060020160009054906101000a900460ff16905083565b600460009054906101000a900460ff1681565b6001602052806000526040600020600091509050806000015490806001018054600181600116156101000203166002900480601f0160208091040260200160405190810160405280929190818152602001828054600181600116156101000203166002900480156109025780601f106108d757610100808354040283529160200191610902565b820191906000526020600020905b8154815290600101906020018083116108e557829003601f168201915b505050505090806002015490806003018054600181600116156101000203166002900480601f0160208091040260200160405190810160405280929190818152602001828054600181600116156101000203166002900480156109a65780601f1061097b576101008083540402835291602001916109a6565b820191906000526020600020905b81548152906001019060200180831161098957829003601f168201915b505050505090806004015490806005018054600181600116156101000203166002900480601f016020809104026020016040519081016040528092919081815260200182805460018160011615610100020316600290048015610a4a5780601f10610a1f57610100808354040283529160200191610a4a565b820191906000526020600020905b815481529060010190602001808311610a2d57829003601f168201915b5050505050905086565b60035481565b6000809054906101000a900473ffffffffffffffffffffffffffffffffffffffff1673ffffffffffffffffffffffffffffffffffffffff163373ffffffffffffffffffffffffffffffffffffffff1614610ab357600080fd5b6000806002811115610ac157fe5b600460009054906101000a900460ff166002811115610adc57fe5b14610ae657600080fd5b6003600081548092919060010191905055506040518060c0016040528060035481526020018681526020016000815260200185815260200184815260200183815250600160006003548152602001908152602001600020600082015181600001556020820151816001019080519060200190610b63929190610bf2565b50604082015181600201556060820151816003019080519060200190610b8a929190610bf2565b506080820151816004015560a0820151816005019080519060200190610bb1929190610bf2565b509050505050505050565b6040518060c001604052806000815260200160608152602001600081526020016060815260200160008152602001606081525090565b828054600181600116156101000203166002900490600052602060002090601f016020900481019282601f10610c3357805160ff1916838001178555610c61565b82800160010185558215610c61579182015b82811115610c60578251825591602001919060010190610c45565b5b509050610c6e9190610c72565b5090565b610c9491905b80821115610c90576000816000905550600101610c78565b5090565b90565b600081359050610ca681611217565b92915050565b600081359050610cbb8161122e565b92915050565b600082601f830112610cd257600080fd5b8135610ce5610ce0826110f1565b6110c4565b91508082526020830160208301858383011115610d0157600080fd5b610d0c8382846111b7565b50505092915050565b600081359050610d248161123e565b92915050565b600060208284031215610d3c57600080fd5b6000610d4a84828501610c97565b91505092915050565b600060208284031215610d6557600080fd5b6000610d7384828501610cac565b91505092915050565b60008060008060808587031215610d9257600080fd5b600085013567ffffffffffffffff811115610dac57600080fd5b610db887828801610cc1565b945050602085013567ffffffffffffffff811115610dd557600080fd5b610de187828801610cc1565b9350506040610df287828801610d15565b925050606085013567ffffffffffffffff811115610e0f57600080fd5b610e1b87828801610cc1565b91505092959194509250565b600060208284031215610e3957600080fd5b6000610e4784828501610d15565b91505092915050565b610e598161114a565b82525050565b610e688161115c565b82525050565b610e77816111a5565b82525050565b6000610e888261111d565b610e928185611128565b9350610ea28185602086016111c6565b610eab816111f9565b840191505092915050565b6000610ec18261111d565b610ecb8185611139565b9350610edb8185602086016111c6565b610ee4816111f9565b840191505092915050565b600060c083016000830151610f076000860182610f86565b5060208301518482036020860152610f1f8282610e7d565b9150506040830151610f346040860182610f86565b5060608301518482036060860152610f4c8282610e7d565b9150506080830151610f616080860182610f86565b5060a083015184820360a0860152610f798282610e7d565b9150508091505092915050565b610f8f8161119b565b82525050565b610f9e8161119b565b82525050565b6000602082019050610fb96000830184610e50565b92915050565b6000606082019050610fd46000830186610e5f565b610fe16020830185610f95565b610fee6040830184610e5f565b949350505050565b600060208201905061100b6000830184610e6e565b92915050565b6000602082019050818103600083015261102b8184610eef565b905092915050565b60006020820190506110486000830184610f95565b92915050565b600060c0820190506110636000830189610f95565b81810360208301526110758188610eb6565b90506110846040830187610f95565b81810360608301526110968186610eb6565b90506110a56080830185610f95565b81810360a08301526110b78184610eb6565b9050979650505050505050565b6000604051905081810181811067ffffffffffffffff821117156110e757600080fd5b8060405250919050565b600067ffffffffffffffff82111561110857600080fd5b601f19601f8301169050602081019050919050565b600081519050919050565b600082825260208201905092915050565b600082825260208201905092915050565b60006111558261117b565b9050919050565b60008115159050919050565b60008190506111768261120a565b919050565b600073ffffffffffffffffffffffffffffffffffffffff82169050919050565b6000819050919050565b60006111b082611168565b9050919050565b82818337600083830152505050565b60005b838110156111e45780820151818401526020810190506111c9565b838111156111f3576000848401525b50505050565b6000601f19601f8301169050919050565b6003811061121457fe5b50565b6112208161114a565b811461122b57600080fd5b50565b6003811061123b57600080fd5b50565b6112478161119b565b811461125257600080fd5b5056fea365627a7a723158202839d0e51d002e3e138dadf1d4d3cc3bafed27078ac86c2247888e299d2c55606c6578706572696d656e74616cf564736f6c63430005100040",
  "source": "// SPDX-License-Identifier: GPL-3.0\r\n\r\npragma solidity >=0.5.16 <0.9.0;\r\npragma experimental ABIEncoderV2;\r\ncontract Vote{\r\n\t\r\n\tstruct Contestant{\r\n\t\tuint id;\r\n\t\tstring name;\r\n\t\tuint voteCount;\r\n\t\tstring party;\r\n\t\tuint age;\r\n\t\tstring qualification;\r\n\t}\r\n\r\n\tstruct Voter{\r\n\t\tbool hasVoted;\r\n\t\tuint vote;\r\n\t\tbool isRegistered;\r\n\t}\r\n\r\n\taddress admin;\r\n\tmapping(uint => Contestant) public contestants; \r\n   // mapping(address => bool) public voters;\r\n    mapping(address => Voter) public voters;\r\n\tuint public contestantsCount;\r\n\t// uint public counter;\r\n\tenum PHASE{reg, voting , done}\r\n\tPHASE public state;\r\n\r\n\tmodifier onlyAdmin(){\r\n\t\trequire(msg.sender==admin);\r\n\t\t_;\r\n\t}\r\n\t\r\n\tmodifier validState(PHASE x){\r\n\t    require(state==x);\r\n\t    _;\r\n\t}\r\n\r\n\tconstructor() public{\r\n\t\tadmin=msg.sender;\r\n        state=PHASE.reg;\r\n\t\t// counter = 0;\r\n\r\n\t}\r\n\r\n    function changeState(PHASE x) onlyAdmin public{\r\n\t\trequire(x > state);\r\n        state = x;\r\n    }\r\n\r\n\tfunction addContestant(string memory _name , string memory _party , uint _age , string memory _qualification) public onlyAdmin validState(PHASE.reg){\r\n\t\tcontestantsCount++;\r\n\t\tcontestants[contestantsCount]=Contestant(contestantsCount,_name,0,_party,_age,_qualification);\r\n\t}\r\n\r\n\tfunction voterRegisteration(address user) public onlyAdmin validState(PHASE.reg){\r\n\t\tvoters[user].isRegistered=true;\r\n\t}\r\n\r\n\tfunction vote(uint _contestantId) public validState(PHASE.voting){\r\n        \r\n\t\trequire(voters[msg.sender].isRegistered);\r\n\t\trequire(!voters[msg.sender].hasVoted);\r\n        require(_contestantId > 0 && _contestantId<=contestantsCount);\r\n\t\tcontestants[_contestantId].voteCount++;\r\n\t\tvoters[msg.sender].hasVoted=true;\r\n\t\tvoters[msg.sender].vote=_contestantId;\r\n\t}\r\n\tfunction getAdmin() public view returns (address){\r\n\t\treturn admin;\r\n\t}\r\n\tfunction fetchCandidateCount() public view returns(uint){\r\n\t\treturn contestantsCount;\r\n\t}\r\n\t\tfunction getCandidates (uint _value)public view returns(Contestant memory){\r\n\t\treturn contestants[_value];\r\n\t}\r\n}",
  "sourcePath": "C:\\Users\\Haroon Ali\\OneDrive\\Desktop\\COde\\New folder\\contracts\\vote.sol",
  "compiler": {
    "name": "solc",
    "version": "0.5.16+commit.9c3226ce.Emscripten.clang"
  },
  "schemaVersion": "3.4.9",
  "updatedAt": "2022-09-12T17:45:54.007Z",
  "networkType": "ethereum",
  "devdoc": {
    "methods": {}
  },
  "userdoc": {
    "methods": {}
  }
}